{
  "contractName": "ERC721",
  "abi": [
    {
      "inputs": [],
      "stateMutability": "nonpayable",
      "type": "constructor"
    },
    {
      "anonymous": false,
      "inputs": [
        {
          "indexed": true,
          "internalType": "address",
          "name": "_from",
          "type": "address"
        },
        {
          "indexed": true,
          "internalType": "address",
          "name": "_to",
          "type": "address"
        },
        {
          "indexed": true,
          "internalType": "uint256",
          "name": "_tokenId",
          "type": "uint256"
        }
      ],
      "name": "Transfer",
      "type": "event"
    },
    {
      "inputs": [
        {
          "internalType": "bytes4",
          "name": "interfaceID",
          "type": "bytes4"
        }
      ],
      "name": "supportsInterface",
      "outputs": [
        {
          "internalType": "bool",
          "name": "",
          "type": "bool"
        }
      ],
      "stateMutability": "view",
      "type": "function"
    },
    {
      "inputs": [
        {
          "internalType": "address",
          "name": "_owner",
          "type": "address"
        }
      ],
      "name": "balanceOf",
      "outputs": [
        {
          "internalType": "uint256",
          "name": "",
          "type": "uint256"
        }
      ],
      "stateMutability": "view",
      "type": "function"
    },
    {
      "inputs": [
        {
          "internalType": "uint256",
          "name": "_tokenId",
          "type": "uint256"
        }
      ],
      "name": "ownerOf",
      "outputs": [
        {
          "internalType": "address",
          "name": "",
          "type": "address"
        }
      ],
      "stateMutability": "view",
      "type": "function"
    },
    {
      "inputs": [
        {
          "internalType": "address",
          "name": "_from",
          "type": "address"
        },
        {
          "internalType": "address",
          "name": "_to",
          "type": "address"
        },
        {
          "internalType": "uint256",
          "name": "_tokenId",
          "type": "uint256"
        }
      ],
      "name": "transferFrom",
      "outputs": [],
      "stateMutability": "nonpayable",
      "type": "function"
    }
  ],
  "bytecode": "0x608060405234801561001057600080fd5b506100407f73813bba42f44928e20db2a5b92cac99671b641f2b84888df9e2d62fb14450826100b860201b60201c565b6100b37f22c82707ba960a14c7592ffb6b8cfaa073fed0048a84cc7fa41f6b5bd8e7f2e47f3a6eb71757dfc6e784c1459d26270140c2c147d95ca985c80026fc5301c3eca17f8a7e378434598edc36d108689a030cbc9d7d465de4f74c71bae1028eed6a881b18186100b860201b60201c565b610124565b6001600080837bffffffffffffffffffffffffffffffffffffffffffffffffffffffff19167bffffffffffffffffffffffffffffffffffffffffffffffffffffffff1916815260200190815260200160002060006101000a81548160ff02191690831515021790555050565b610a29806101336000396000f3fe608060405234801561001057600080fd5b506004361061004c5760003560e01c806301ffc9a71461005157806323b872dd146100815780636352211e1461009d57806370a08231146100cd575b600080fd5b61006b60048036038101906100669190610581565b6100fd565b60405161007891906105c9565b60405180910390f35b61009b60048036038101906100969190610678565b610164565b005b6100b760048036038101906100b291906106cb565b610174565b6040516100c49190610707565b60405180910390f35b6100e760048036038101906100e29190610722565b610226565b6040516100f4919061075e565b60405180910390f35b6000806000837bffffffffffffffffffffffffffffffffffffffffffffffffffffffff19167bffffffffffffffffffffffffffffffffffffffffffffffffffffffff1916815260200190815260200160002060009054906101000a900460ff169050919050565b61016f8383836102de565b505050565b6000806001600084815260200190815260200160002060009054906101000a900473ffffffffffffffffffffffffffffffffffffffff169050600073ffffffffffffffffffffffffffffffffffffffff168173ffffffffffffffffffffffffffffffffffffffff16141561021d576040517f08c379a0000000000000000000000000000000000000000000000000000000008152600401610214906107d6565b60405180910390fd5b80915050919050565b60008073ffffffffffffffffffffffffffffffffffffffff168273ffffffffffffffffffffffffffffffffffffffff161415610297576040517f08c379a000000000000000000000000000000000000000000000000000000000815260040161028e90610842565b60405180910390fd5b600260008373ffffffffffffffffffffffffffffffffffffffff1673ffffffffffffffffffffffffffffffffffffffff168152602001908152602001600020549050919050565b600073ffffffffffffffffffffffffffffffffffffffff168273ffffffffffffffffffffffffffffffffffffffff16141561034e576040517f08c379a0000000000000000000000000000000000000000000000000000000008152600401610345906108ae565b60405180910390fd5b8273ffffffffffffffffffffffffffffffffffffffff1661036e82610174565b73ffffffffffffffffffffffffffffffffffffffff16146103c4576040517f08c379a00000000000000000000000000000000000000000000000000000000081526004016103bb9061091a565b60405180910390fd5b6001600260008573ffffffffffffffffffffffffffffffffffffffff1673ffffffffffffffffffffffffffffffffffffffff16815260200190815260200160002060008282546104149190610969565b925050819055506001600260008473ffffffffffffffffffffffffffffffffffffffff1673ffffffffffffffffffffffffffffffffffffffff168152602001908152602001600020600082825461046b919061099d565b92505081905550816001600083815260200190815260200160002060006101000a81548173ffffffffffffffffffffffffffffffffffffffff021916908373ffffffffffffffffffffffffffffffffffffffff160217905550808273ffffffffffffffffffffffffffffffffffffffff168473ffffffffffffffffffffffffffffffffffffffff167fddf252ad1be2c89b69c2b068fc378daa952ba7f163c4a11628f55a4df523b3ef60405160405180910390a4505050565b600080fd5b60007fffffffff0000000000000000000000000000000000000000000000000000000082169050919050565b61055e81610529565b811461056957600080fd5b50565b60008135905061057b81610555565b92915050565b60006020828403121561059757610596610524565b5b60006105a58482850161056c565b91505092915050565b60008115159050919050565b6105c3816105ae565b82525050565b60006020820190506105de60008301846105ba565b92915050565b600073ffffffffffffffffffffffffffffffffffffffff82169050919050565b600061060f826105e4565b9050919050565b61061f81610604565b811461062a57600080fd5b50565b60008135905061063c81610616565b92915050565b6000819050919050565b61065581610642565b811461066057600080fd5b50565b6000813590506106728161064c565b92915050565b60008060006060848603121561069157610690610524565b5b600061069f8682870161062d565b93505060206106b08682870161062d565b92505060406106c186828701610663565b9150509250925092565b6000602082840312156106e1576106e0610524565b5b60006106ef84828501610663565b91505092915050565b61070181610604565b82525050565b600060208201905061071c60008301846106f8565b92915050565b60006020828403121561073857610737610524565b5b60006107468482850161062d565b91505092915050565b61075881610642565b82525050565b6000602082019050610773600083018461074f565b92915050565b600082825260208201905092915050565b7f6f776e6572206e6f7420666f756e640000000000000000000000000000000000600082015250565b60006107c0600f83610779565b91506107cb8261078a565b602082019050919050565b600060208201905081810360008301526107ef816107b3565b9050919050565b7f6f776e6572206973207a65726f00000000000000000000000000000000000000600082015250565b600061082c600d83610779565b9150610837826107f6565b602082019050919050565b6000602082019050818103600083015261085b8161081f565b9050919050565b7f5472616e73666572696e6720746f207a65722061646472657373000000000000600082015250565b6000610898601a83610779565b91506108a382610862565b602082019050919050565b600060208201905081810360008301526108c78161088b565b9050919050565b7f796f7520646f6e74206f776e20746865206e6674206469707368697400000000600082015250565b6000610904601c83610779565b915061090f826108ce565b602082019050919050565b60006020820190508181036000830152610933816108f7565b9050919050565b7f4e487b7100000000000000000000000000000000000000000000000000000000600052601160045260246000fd5b600061097482610642565b915061097f83610642565b9250828210156109925761099161093a565b5b828203905092915050565b60006109a882610642565b91506109b383610642565b9250827fffffffffffffffffffffffffffffffffffffffffffffffffffffffffffffffff038211156109e8576109e761093a565b5b82820190509291505056fea2646970667358221220e0f84c3c701d37da66e384875f7140686c9bc45732a941027de195f2308eac4264736f6c634300080c0033",
  "immutableReferences": {},
  "source": "// SPDX-License-Identifier: MIT\r\npragma solidity ^0.8.0;\r\n\r\n/**\r\n    1.nft point to an address\r\n    2.keep track of token ids \r\n    3.track of owner add to token ids\r\n    4. track of how many token owner has\r\n*/\r\nimport './ERC165.sol';\r\nimport './interfaces/IERC721.sol';\r\n\r\ncontract ERC721 is ERC165,IERC721{\r\n    // logging info\r\n    //only 3 indexed allowed to save gas\r\n    // event Transfer(\r\n    //     address indexed from, \r\n    //     address indexed to, \r\n    //     uint256 indexed tokenId);\r\n\r\n\r\n    //mappping creates an hash table key pair value\r\n    mapping(uint256 => address) private _tokenOwner;\r\n\r\n    mapping(address => uint256) private _ownedTokens; \r\n\r\n    constructor() {\r\n        _registerInterface(bytes4(keccak256('balanceOf(bytes4)')^keccak256('ownerOf(bytes4)')^keccak256('transferFrom(bytes4)')));\r\n    }\r\n\r\n    function balanceOf(address _owner) public override view returns(uint256){\r\n        \r\n        require(_owner != address(0),'owner is zero');\r\n        return _ownedTokens[_owner];\r\n    }\r\n\r\n    function ownerOf(uint _tokenId) public override view returns(address) {\r\n        address owner = _tokenOwner[_tokenId];\r\n        require(owner != address(0), 'owner not found');\r\n        return owner;\r\n    }\r\n    function _exists(uint256 tokenId) internal  view returns(bool){\r\n        address owner = _tokenOwner[tokenId];\r\n        return owner != address(0);\r\n    }\r\n\r\n    function _mint (address to, uint256 tokenId)  internal virtual {\r\n        \r\n        require(to != address(0), 'ERC721: minting to zero address');\r\n        require(!_exists(tokenId),'ERC721: token already minted');\r\n\r\n\r\n        _tokenOwner[tokenId] = to;\r\n        _ownedTokens[to] += 1;\r\n\r\n        //just logging info\r\n        emit Transfer(address(0), to, tokenId);\r\n    }\r\n\r\n    function _transferFrom(address _from, address _to, uint _tokenId) internal{\r\n        require(_to != address(0),'Transfering to zer address');\r\n        require(ownerOf(_tokenId) == _from, 'you dont own the nft dipshit');\r\n\r\n        _ownedTokens[_from] -= 1;\r\n        _ownedTokens[_to] +=1;\r\n\r\n        _tokenOwner[_tokenId] = _to;\r\n\r\n        emit Transfer(_from, _to, _tokenId);\r\n    } \r\n\r\n    function transferFrom(address _from, address _to, uint _tokenId) override public{\r\n        _transferFrom(_from,_to,_tokenId);\r\n    }\r\n}",
  "sourcePath": "C:\\Users\\Arhan Ali Khan\\Desktop\\NFT-Marketplace\\src\\contracts\\ERC721.sol",
  "compiler": {
    "name": "solc",
    "version": "0.8.12+commit.f00d7308.Emscripten.clang"
  },
  "schemaVersion": "3.4.4",
  "updatedAt": "2022-02-18T04:32:51.562Z",
  "devdoc": {
    "kind": "dev",
    "methods": {},
    "version": 1
  },
  "userdoc": {
    "kind": "user",
    "methods": {},
    "version": 1
  }
}