{
  "contractName": "ERC721Enumerable",
  "abi": [
    {
      "inputs": [],
      "stateMutability": "nonpayable",
      "type": "constructor"
    },
    {
      "anonymous": false,
      "inputs": [
        {
          "indexed": true,
          "internalType": "address",
          "name": "_from",
          "type": "address"
        },
        {
          "indexed": true,
          "internalType": "address",
          "name": "_to",
          "type": "address"
        },
        {
          "indexed": true,
          "internalType": "uint256",
          "name": "_tokenId",
          "type": "uint256"
        }
      ],
      "name": "Transfer",
      "type": "event"
    },
    {
      "inputs": [
        {
          "internalType": "address",
          "name": "_owner",
          "type": "address"
        }
      ],
      "name": "balanceOf",
      "outputs": [
        {
          "internalType": "uint256",
          "name": "",
          "type": "uint256"
        }
      ],
      "stateMutability": "view",
      "type": "function"
    },
    {
      "inputs": [
        {
          "internalType": "uint256",
          "name": "_tokenId",
          "type": "uint256"
        }
      ],
      "name": "ownerOf",
      "outputs": [
        {
          "internalType": "address",
          "name": "",
          "type": "address"
        }
      ],
      "stateMutability": "view",
      "type": "function"
    },
    {
      "inputs": [
        {
          "internalType": "bytes4",
          "name": "interfaceID",
          "type": "bytes4"
        }
      ],
      "name": "supportsInterface",
      "outputs": [
        {
          "internalType": "bool",
          "name": "",
          "type": "bool"
        }
      ],
      "stateMutability": "view",
      "type": "function"
    },
    {
      "inputs": [
        {
          "internalType": "address",
          "name": "_from",
          "type": "address"
        },
        {
          "internalType": "address",
          "name": "_to",
          "type": "address"
        },
        {
          "internalType": "uint256",
          "name": "_tokenId",
          "type": "uint256"
        }
      ],
      "name": "transferFrom",
      "outputs": [],
      "stateMutability": "nonpayable",
      "type": "function"
    },
    {
      "inputs": [
        {
          "internalType": "uint256",
          "name": "_index",
          "type": "uint256"
        }
      ],
      "name": "tokenByIndex",
      "outputs": [
        {
          "internalType": "uint256",
          "name": "",
          "type": "uint256"
        }
      ],
      "stateMutability": "view",
      "type": "function"
    },
    {
      "inputs": [
        {
          "internalType": "address",
          "name": "_owner",
          "type": "address"
        },
        {
          "internalType": "uint256",
          "name": "_index",
          "type": "uint256"
        }
      ],
      "name": "tokenOfOwnerByIndex",
      "outputs": [
        {
          "internalType": "uint256",
          "name": "",
          "type": "uint256"
        }
      ],
      "stateMutability": "view",
      "type": "function"
    },
    {
      "inputs": [],
      "name": "totalSupply",
      "outputs": [
        {
          "internalType": "uint256",
          "name": "",
          "type": "uint256"
        }
      ],
      "stateMutability": "view",
      "type": "function"
    }
  ],
  "bytecode": "0x608060405234801561001057600080fd5b506100407f73813bba42f44928e20db2a5b92cac99671b641f2b84888df9e2d62fb144508261012b60201b60201c565b6100b37f22c82707ba960a14c7592ffb6b8cfaa073fed0048a84cc7fa41f6b5bd8e7f2e47f3a6eb71757dfc6e784c1459d26270140c2c147d95ca985c80026fc5301c3eca17f8a7e378434598edc36d108689a030cbc9d7d465de4f74c71bae1028eed6a881b181861012b60201b60201c565b6101267f8230223f691b981717299fae9549350a0d894555723531f02108b1f522c1a7977f6da5e1284143cdd2d15038a59bde3be031250f00291d64494c12d967b3a4e0c37fc53637662700e6c65104059db8bba34439e0c32483ab7c34e3ccae52c7395495181861012b60201b60201c565b610197565b6001600080837bffffffffffffffffffffffffffffffffffffffffffffffffffffffff19167bffffffffffffffffffffffffffffffffffffffffffffffffffffffff1916815260200190815260200160002060006101000a81548160ff02191690831515021790555050565b610cab806101a66000396000f3fe608060405234801561001057600080fd5b506004361061007d5760003560e01c80632f745c591161005b5780632f745c59146100ec5780634f6ccce71461011c5780636352211e1461014c57806370a082311461017c5761007d565b806301ffc9a71461008257806318160ddd146100b257806323b872dd146100d0575b600080fd5b61009c60048036038101906100979190610728565b6101ac565b6040516100a99190610770565b60405180910390f35b6100ba610213565b6040516100c791906107a4565b60405180910390f35b6100ea60048036038101906100e59190610849565b610220565b005b6101066004803603810190610101919061089c565b610230565b60405161011391906107a4565b60405180910390f35b610136600480360381019061013191906108dc565b6102aa565b60405161014391906107a4565b60405180910390f35b610166600480360381019061016191906108dc565b61031b565b6040516101739190610918565b60405180910390f35b61019660048036038101906101919190610933565b6103cd565b6040516101a391906107a4565b60405180910390f35b6000806000837bffffffffffffffffffffffffffffffffffffffffffffffffffffffff19167bffffffffffffffffffffffffffffffffffffffffffffffffffffffff1916815260200190815260200160002060009054906101000a900460ff169050919050565b6000600380549050905090565b61022b838383610485565b505050565b600061023b836103cd565b821061024657600080fd5b600560008473ffffffffffffffffffffffffffffffffffffffff1673ffffffffffffffffffffffffffffffffffffffff168152602001908152602001600020828154811061029757610296610960565b5b9060005260206000200154905092915050565b60006102b4610213565b82106102f5576040517f08c379a00000000000000000000000000000000000000000000000000000000081526004016102ec906109ec565b60405180910390fd5b6003828154811061030957610308610960565b5b90600052602060002001549050919050565b6000806001600084815260200190815260200160002060009054906101000a900473ffffffffffffffffffffffffffffffffffffffff169050600073ffffffffffffffffffffffffffffffffffffffff168173ffffffffffffffffffffffffffffffffffffffff1614156103c4576040517f08c379a00000000000000000000000000000000000000000000000000000000081526004016103bb90610a58565b60405180910390fd5b80915050919050565b60008073ffffffffffffffffffffffffffffffffffffffff168273ffffffffffffffffffffffffffffffffffffffff16141561043e576040517f08c379a000000000000000000000000000000000000000000000000000000000815260040161043590610ac4565b60405180910390fd5b600260008373ffffffffffffffffffffffffffffffffffffffff1673ffffffffffffffffffffffffffffffffffffffff168152602001908152602001600020549050919050565b600073ffffffffffffffffffffffffffffffffffffffff168273ffffffffffffffffffffffffffffffffffffffff1614156104f5576040517f08c379a00000000000000000000000000000000000000000000000000000000081526004016104ec90610b30565b60405180910390fd5b8273ffffffffffffffffffffffffffffffffffffffff166105158261031b565b73ffffffffffffffffffffffffffffffffffffffff161461056b576040517f08c379a000000000000000000000000000000000000000000000000000000000815260040161056290610b9c565b60405180910390fd5b6001600260008573ffffffffffffffffffffffffffffffffffffffff1673ffffffffffffffffffffffffffffffffffffffff16815260200190815260200160002060008282546105bb9190610beb565b925050819055506001600260008473ffffffffffffffffffffffffffffffffffffffff1673ffffffffffffffffffffffffffffffffffffffff16815260200190815260200160002060008282546106129190610c1f565b92505081905550816001600083815260200190815260200160002060006101000a81548173ffffffffffffffffffffffffffffffffffffffff021916908373ffffffffffffffffffffffffffffffffffffffff160217905550808273ffffffffffffffffffffffffffffffffffffffff168473ffffffffffffffffffffffffffffffffffffffff167fddf252ad1be2c89b69c2b068fc378daa952ba7f163c4a11628f55a4df523b3ef60405160405180910390a4505050565b600080fd5b60007fffffffff0000000000000000000000000000000000000000000000000000000082169050919050565b610705816106d0565b811461071057600080fd5b50565b600081359050610722816106fc565b92915050565b60006020828403121561073e5761073d6106cb565b5b600061074c84828501610713565b91505092915050565b60008115159050919050565b61076a81610755565b82525050565b60006020820190506107856000830184610761565b92915050565b6000819050919050565b61079e8161078b565b82525050565b60006020820190506107b96000830184610795565b92915050565b600073ffffffffffffffffffffffffffffffffffffffff82169050919050565b60006107ea826107bf565b9050919050565b6107fa816107df565b811461080557600080fd5b50565b600081359050610817816107f1565b92915050565b6108268161078b565b811461083157600080fd5b50565b6000813590506108438161081d565b92915050565b600080600060608486031215610862576108616106cb565b5b600061087086828701610808565b935050602061088186828701610808565b925050604061089286828701610834565b9150509250925092565b600080604083850312156108b3576108b26106cb565b5b60006108c185828601610808565b92505060206108d285828601610834565b9150509250929050565b6000602082840312156108f2576108f16106cb565b5b600061090084828501610834565b91505092915050565b610912816107df565b82525050565b600060208201905061092d6000830184610909565b92915050565b600060208284031215610949576109486106cb565b5b600061095784828501610808565b91505092915050565b7f4e487b7100000000000000000000000000000000000000000000000000000000600052603260045260246000fd5b600082825260208201905092915050565b7f676c6f62616c20696e646578206f7574206f6620626f756e6365000000000000600082015250565b60006109d6601a8361098f565b91506109e1826109a0565b602082019050919050565b60006020820190508181036000830152610a05816109c9565b9050919050565b7f6f776e6572206e6f7420666f756e640000000000000000000000000000000000600082015250565b6000610a42600f8361098f565b9150610a4d82610a0c565b602082019050919050565b60006020820190508181036000830152610a7181610a35565b9050919050565b7f6f776e6572206973207a65726f00000000000000000000000000000000000000600082015250565b6000610aae600d8361098f565b9150610ab982610a78565b602082019050919050565b60006020820190508181036000830152610add81610aa1565b9050919050565b7f5472616e73666572696e6720746f207a65722061646472657373000000000000600082015250565b6000610b1a601a8361098f565b9150610b2582610ae4565b602082019050919050565b60006020820190508181036000830152610b4981610b0d565b9050919050565b7f796f7520646f6e74206f776e20746865206e6674206469707368697400000000600082015250565b6000610b86601c8361098f565b9150610b9182610b50565b602082019050919050565b60006020820190508181036000830152610bb581610b79565b9050919050565b7f4e487b7100000000000000000000000000000000000000000000000000000000600052601160045260246000fd5b6000610bf68261078b565b9150610c018361078b565b925082821015610c1457610c13610bbc565b5b828203905092915050565b6000610c2a8261078b565b9150610c358361078b565b9250827fffffffffffffffffffffffffffffffffffffffffffffffffffffffffffffffff03821115610c6a57610c69610bbc565b5b82820190509291505056fea2646970667358221220cb63b4dcd99d1259fa899ab0aaf73399ba0b6929a6544d4459810c88dd00a7f164736f6c634300080c0033",
  "immutableReferences": {},
  "source": "// SPDX-License-Identifier: MIT\r\npragma solidity ^0.8.0;\r\n\r\nimport './ERC721.sol';\r\nimport './interfaces/IERC721Enumerable.sol';\r\n\r\ncontract ERC721Enumerable is ERC721,IERC721Enumerable {\r\n    \r\n    uint256[] private _allTokens;\r\n\r\n    //mapping tokenid in _alltokens\r\n    mapping(uint256 => uint256) private _allTokenIndex;\r\n    \r\n    //mapping owner to all owner token ids\r\n    mapping(address => uint256[]) private _ownedTokens;\r\n\r\n    //mapping token Id index to owner token list \r\n    mapping(uint256 => uint256) private _ownedTokensIndex; \r\n\r\n    constructor() {\r\n        _registerInterface(bytes4(keccak256('totalSupply(bytes4)')^keccak256('tokenByIndex(bytes4)')^keccak256('tokenOfOwnerByIndex(bytes4)')));\r\n    }\r\n\r\n    function tokenByIndex(uint256 _index) external override view returns(uint256){\r\n        require(_index < totalSupply(), 'global index out of bounce');\r\n        return _allTokens[_index];\r\n\r\n    }\r\n\r\n    function tokenOfOwnerByIndex(address _owner, uint256 _index) external override view returns(uint256){\r\n        \r\n        require(_index < balanceOf(_owner));\r\n        return _ownedTokens[_owner][_index];\r\n\r\n    }\r\n\r\n    function _mint(address to, uint256 tokenId) override(ERC721) internal {\r\n        super._mint(to, tokenId);\r\n        _addTokensToAllTokenEnumeration(tokenId);\r\n        _addTokensToOwnerEnumeration(to, tokenId);\r\n    }\r\n\r\n    function _addTokensToOwnerEnumeration(address to, uint256 tokenId) private {\r\n        _ownedTokensIndex[tokenId] = _ownedTokens[to].length;\r\n        _ownedTokens[to].push(tokenId);\r\n    } \r\n\r\n    function _addTokensToAllTokenEnumeration(uint256 tokenId) private {\r\n        _allTokenIndex[tokenId] = _allTokens.length;\r\n        _allTokens.push(tokenId);\r\n    }\r\n\r\n    function totalSupply() public override view returns(uint256){\r\n        return _allTokens.length;\r\n    }\r\n}",
  "sourcePath": "C:\\Users\\Arhan Ali Khan\\Desktop\\NFT-Marketplace\\src\\contracts\\ERC721Enumerable.sol",
  "compiler": {
    "name": "solc",
    "version": "0.8.12+commit.f00d7308.Emscripten.clang"
  },
  "schemaVersion": "3.4.4",
  "updatedAt": "2022-02-18T04:32:51.587Z",
  "devdoc": {
    "kind": "dev",
    "methods": {},
    "version": 1
  },
  "userdoc": {
    "kind": "user",
    "methods": {},
    "version": 1
  }
}