{
  "contractName": "ERC721Connector",
  "abi": [
    {
      "inputs": [
        {
          "internalType": "string",
          "name": "name",
          "type": "string"
        },
        {
          "internalType": "string",
          "name": "symbol",
          "type": "string"
        }
      ],
      "stateMutability": "nonpayable",
      "type": "constructor"
    },
    {
      "anonymous": false,
      "inputs": [
        {
          "indexed": true,
          "internalType": "address",
          "name": "_from",
          "type": "address"
        },
        {
          "indexed": true,
          "internalType": "address",
          "name": "_to",
          "type": "address"
        },
        {
          "indexed": true,
          "internalType": "uint256",
          "name": "_tokenId",
          "type": "uint256"
        }
      ],
      "name": "Transfer",
      "type": "event"
    },
    {
      "inputs": [
        {
          "internalType": "address",
          "name": "_owner",
          "type": "address"
        }
      ],
      "name": "balanceOf",
      "outputs": [
        {
          "internalType": "uint256",
          "name": "",
          "type": "uint256"
        }
      ],
      "stateMutability": "view",
      "type": "function"
    },
    {
      "inputs": [],
      "name": "name",
      "outputs": [
        {
          "internalType": "string",
          "name": "",
          "type": "string"
        }
      ],
      "stateMutability": "view",
      "type": "function"
    },
    {
      "inputs": [
        {
          "internalType": "uint256",
          "name": "_tokenId",
          "type": "uint256"
        }
      ],
      "name": "ownerOf",
      "outputs": [
        {
          "internalType": "address",
          "name": "",
          "type": "address"
        }
      ],
      "stateMutability": "view",
      "type": "function"
    },
    {
      "inputs": [
        {
          "internalType": "bytes4",
          "name": "interfaceID",
          "type": "bytes4"
        }
      ],
      "name": "supportsInterface",
      "outputs": [
        {
          "internalType": "bool",
          "name": "",
          "type": "bool"
        }
      ],
      "stateMutability": "view",
      "type": "function"
    },
    {
      "inputs": [],
      "name": "symbol",
      "outputs": [
        {
          "internalType": "string",
          "name": "",
          "type": "string"
        }
      ],
      "stateMutability": "view",
      "type": "function"
    },
    {
      "inputs": [
        {
          "internalType": "uint256",
          "name": "_index",
          "type": "uint256"
        }
      ],
      "name": "tokenByIndex",
      "outputs": [
        {
          "internalType": "uint256",
          "name": "",
          "type": "uint256"
        }
      ],
      "stateMutability": "view",
      "type": "function"
    },
    {
      "inputs": [
        {
          "internalType": "address",
          "name": "_owner",
          "type": "address"
        },
        {
          "internalType": "uint256",
          "name": "_index",
          "type": "uint256"
        }
      ],
      "name": "tokenOfOwnerByIndex",
      "outputs": [
        {
          "internalType": "uint256",
          "name": "",
          "type": "uint256"
        }
      ],
      "stateMutability": "view",
      "type": "function"
    },
    {
      "inputs": [],
      "name": "totalSupply",
      "outputs": [
        {
          "internalType": "uint256",
          "name": "",
          "type": "uint256"
        }
      ],
      "stateMutability": "view",
      "type": "function"
    },
    {
      "inputs": [
        {
          "internalType": "address",
          "name": "_from",
          "type": "address"
        },
        {
          "internalType": "address",
          "name": "_to",
          "type": "address"
        },
        {
          "internalType": "uint256",
          "name": "_tokenId",
          "type": "uint256"
        }
      ],
      "name": "transferFrom",
      "outputs": [],
      "stateMutability": "nonpayable",
      "type": "function"
    }
  ],
  "bytecode": "0x60806040523480156200001157600080fd5b50604051620014c2380380620014c283398181016040528101906200003791906200049c565b81816200006a7f73813bba42f44928e20db2a5b92cac99671b641f2b84888df9e2d62fb1445082620001e360201b60201c565b8160019080519060200190620000829291906200024f565b5080600290805190602001906200009b9291906200024f565b50620000ef7f13b182f4c0e5b2efbac0efe6cf6d756c8b89f4b79c5707a043ed9ea740574ee97f7feaf19471f34a12a7eaf32d5f3090aa2260ea8624dc8a138e74e0bf0f62307618620001e360201b60201c565b5050620001667f22c82707ba960a14c7592ffb6b8cfaa073fed0048a84cc7fa41f6b5bd8e7f2e47f3a6eb71757dfc6e784c1459d26270140c2c147d95ca985c80026fc5301c3eca17f8a7e378434598edc36d108689a030cbc9d7d465de4f74c71bae1028eed6a881b1818620001e360201b60201c565b620001db7f8230223f691b981717299fae9549350a0d894555723531f02108b1f522c1a7977f6da5e1284143cdd2d15038a59bde3be031250f00291d64494c12d967b3a4e0c37fc53637662700e6c65104059db8bba34439e0c32483ab7c34e3ccae52c73954951818620001e360201b60201c565b505062000586565b6001600080837bffffffffffffffffffffffffffffffffffffffffffffffffffffffff19167bffffffffffffffffffffffffffffffffffffffffffffffffffffffff1916815260200190815260200160002060006101000a81548160ff02191690831515021790555050565b8280546200025d9062000550565b90600052602060002090601f016020900481019282620002815760008555620002cd565b82601f106200029c57805160ff1916838001178555620002cd565b82800160010185558215620002cd579182015b82811115620002cc578251825591602001919060010190620002af565b5b509050620002dc9190620002e0565b5090565b5b80821115620002fb576000816000905550600101620002e1565b5090565b6000604051905090565b600080fd5b600080fd5b600080fd5b600080fd5b6000601f19601f8301169050919050565b7f4e487b7100000000000000000000000000000000000000000000000000000000600052604160045260246000fd5b62000368826200031d565b810181811067ffffffffffffffff821117156200038a57620003896200032e565b5b80604052505050565b60006200039f620002ff565b9050620003ad82826200035d565b919050565b600067ffffffffffffffff821115620003d057620003cf6200032e565b5b620003db826200031d565b9050602081019050919050565b60005b8381101562000408578082015181840152602081019050620003eb565b8381111562000418576000848401525b50505050565b6000620004356200042f84620003b2565b62000393565b90508281526020810184848401111562000454576200045362000318565b5b62000461848285620003e8565b509392505050565b600082601f83011262000481576200048062000313565b5b8151620004938482602086016200041e565b91505092915050565b60008060408385031215620004b657620004b562000309565b5b600083015167ffffffffffffffff811115620004d757620004d66200030e565b5b620004e58582860162000469565b925050602083015167ffffffffffffffff8111156200050957620005086200030e565b5b620005178582860162000469565b9150509250929050565b7f4e487b7100000000000000000000000000000000000000000000000000000000600052602260045260246000fd5b600060028204905060018216806200056957607f821691505b6020821081141562000580576200057f62000521565b5b50919050565b610f2c80620005966000396000f3fe608060405234801561001057600080fd5b50600436106100935760003560e01c80632f745c59116100665780632f745c59146101205780634f6ccce7146101505780636352211e1461018057806370a08231146101b057806395d89b41146101e057610093565b806301ffc9a71461009857806306fdde03146100c857806318160ddd146100e657806323b872dd14610104575b600080fd5b6100b260048036038101906100ad919061089e565b6101fe565b6040516100bf91906108e6565b60405180910390f35b6100d0610265565b6040516100dd919061099a565b60405180910390f35b6100ee6102f7565b6040516100fb91906109d5565b60405180910390f35b61011e60048036038101906101199190610a7a565b610304565b005b61013a60048036038101906101359190610acd565b610314565b60405161014791906109d5565b60405180910390f35b61016a60048036038101906101659190610b0d565b61038e565b60405161017791906109d5565b60405180910390f35b61019a60048036038101906101959190610b0d565b6103ff565b6040516101a79190610b49565b60405180910390f35b6101ca60048036038101906101c59190610b64565b6104b1565b6040516101d791906109d5565b60405180910390f35b6101e8610569565b6040516101f5919061099a565b60405180910390f35b6000806000837bffffffffffffffffffffffffffffffffffffffffffffffffffffffff19167bffffffffffffffffffffffffffffffffffffffffffffffffffffffff1916815260200190815260200160002060009054906101000a900460ff169050919050565b60606001805461027490610bc0565b80601f01602080910402602001604051908101604052809291908181526020018280546102a090610bc0565b80156102ed5780601f106102c2576101008083540402835291602001916102ed565b820191906000526020600020905b8154815290600101906020018083116102d057829003601f168201915b5050505050905090565b6000600580549050905090565b61030f8383836105fb565b505050565b600061031f836104b1565b821061032a57600080fd5b600760008473ffffffffffffffffffffffffffffffffffffffff1673ffffffffffffffffffffffffffffffffffffffff168152602001908152602001600020828154811061037b5761037a610bf2565b5b9060005260206000200154905092915050565b60006103986102f7565b82106103d9576040517f08c379a00000000000000000000000000000000000000000000000000000000081526004016103d090610c6d565b60405180910390fd5b600582815481106103ed576103ec610bf2565b5b90600052602060002001549050919050565b6000806003600084815260200190815260200160002060009054906101000a900473ffffffffffffffffffffffffffffffffffffffff169050600073ffffffffffffffffffffffffffffffffffffffff168173ffffffffffffffffffffffffffffffffffffffff1614156104a8576040517f08c379a000000000000000000000000000000000000000000000000000000000815260040161049f90610cd9565b60405180910390fd5b80915050919050565b60008073ffffffffffffffffffffffffffffffffffffffff168273ffffffffffffffffffffffffffffffffffffffff161415610522576040517f08c379a000000000000000000000000000000000000000000000000000000000815260040161051990610d45565b60405180910390fd5b600460008373ffffffffffffffffffffffffffffffffffffffff1673ffffffffffffffffffffffffffffffffffffffff168152602001908152602001600020549050919050565b60606002805461057890610bc0565b80601f01602080910402602001604051908101604052809291908181526020018280546105a490610bc0565b80156105f15780601f106105c6576101008083540402835291602001916105f1565b820191906000526020600020905b8154815290600101906020018083116105d457829003601f168201915b5050505050905090565b600073ffffffffffffffffffffffffffffffffffffffff168273ffffffffffffffffffffffffffffffffffffffff16141561066b576040517f08c379a000000000000000000000000000000000000000000000000000000000815260040161066290610db1565b60405180910390fd5b8273ffffffffffffffffffffffffffffffffffffffff1661068b826103ff565b73ffffffffffffffffffffffffffffffffffffffff16146106e1576040517f08c379a00000000000000000000000000000000000000000000000000000000081526004016106d890610e1d565b60405180910390fd5b6001600460008573ffffffffffffffffffffffffffffffffffffffff1673ffffffffffffffffffffffffffffffffffffffff16815260200190815260200160002060008282546107319190610e6c565b925050819055506001600460008473ffffffffffffffffffffffffffffffffffffffff1673ffffffffffffffffffffffffffffffffffffffff16815260200190815260200160002060008282546107889190610ea0565b92505081905550816003600083815260200190815260200160002060006101000a81548173ffffffffffffffffffffffffffffffffffffffff021916908373ffffffffffffffffffffffffffffffffffffffff160217905550808273ffffffffffffffffffffffffffffffffffffffff168473ffffffffffffffffffffffffffffffffffffffff167fddf252ad1be2c89b69c2b068fc378daa952ba7f163c4a11628f55a4df523b3ef60405160405180910390a4505050565b600080fd5b60007fffffffff0000000000000000000000000000000000000000000000000000000082169050919050565b61087b81610846565b811461088657600080fd5b50565b60008135905061089881610872565b92915050565b6000602082840312156108b4576108b3610841565b5b60006108c284828501610889565b91505092915050565b60008115159050919050565b6108e0816108cb565b82525050565b60006020820190506108fb60008301846108d7565b92915050565b600081519050919050565b600082825260208201905092915050565b60005b8381101561093b578082015181840152602081019050610920565b8381111561094a576000848401525b50505050565b6000601f19601f8301169050919050565b600061096c82610901565b610976818561090c565b935061098681856020860161091d565b61098f81610950565b840191505092915050565b600060208201905081810360008301526109b48184610961565b905092915050565b6000819050919050565b6109cf816109bc565b82525050565b60006020820190506109ea60008301846109c6565b92915050565b600073ffffffffffffffffffffffffffffffffffffffff82169050919050565b6000610a1b826109f0565b9050919050565b610a2b81610a10565b8114610a3657600080fd5b50565b600081359050610a4881610a22565b92915050565b610a57816109bc565b8114610a6257600080fd5b50565b600081359050610a7481610a4e565b92915050565b600080600060608486031215610a9357610a92610841565b5b6000610aa186828701610a39565b9350506020610ab286828701610a39565b9250506040610ac386828701610a65565b9150509250925092565b60008060408385031215610ae457610ae3610841565b5b6000610af285828601610a39565b9250506020610b0385828601610a65565b9150509250929050565b600060208284031215610b2357610b22610841565b5b6000610b3184828501610a65565b91505092915050565b610b4381610a10565b82525050565b6000602082019050610b5e6000830184610b3a565b92915050565b600060208284031215610b7a57610b79610841565b5b6000610b8884828501610a39565b91505092915050565b7f4e487b7100000000000000000000000000000000000000000000000000000000600052602260045260246000fd5b60006002820490506001821680610bd857607f821691505b60208210811415610bec57610beb610b91565b5b50919050565b7f4e487b7100000000000000000000000000000000000000000000000000000000600052603260045260246000fd5b7f676c6f62616c20696e646578206f7574206f6620626f756e6365000000000000600082015250565b6000610c57601a8361090c565b9150610c6282610c21565b602082019050919050565b60006020820190508181036000830152610c8681610c4a565b9050919050565b7f6f776e6572206e6f7420666f756e640000000000000000000000000000000000600082015250565b6000610cc3600f8361090c565b9150610cce82610c8d565b602082019050919050565b60006020820190508181036000830152610cf281610cb6565b9050919050565b7f6f776e6572206973207a65726f00000000000000000000000000000000000000600082015250565b6000610d2f600d8361090c565b9150610d3a82610cf9565b602082019050919050565b60006020820190508181036000830152610d5e81610d22565b9050919050565b7f5472616e73666572696e6720746f207a65722061646472657373000000000000600082015250565b6000610d9b601a8361090c565b9150610da682610d65565b602082019050919050565b60006020820190508181036000830152610dca81610d8e565b9050919050565b7f796f7520646f6e74206f776e20746865206e6674206469707368697400000000600082015250565b6000610e07601c8361090c565b9150610e1282610dd1565b602082019050919050565b60006020820190508181036000830152610e3681610dfa565b9050919050565b7f4e487b7100000000000000000000000000000000000000000000000000000000600052601160045260246000fd5b6000610e77826109bc565b9150610e82836109bc565b925082821015610e9557610e94610e3d565b5b828203905092915050565b6000610eab826109bc565b9150610eb6836109bc565b9250827fffffffffffffffffffffffffffffffffffffffffffffffffffffffffffffffff03821115610eeb57610eea610e3d565b5b82820190509291505056fea2646970667358221220eed0c35dc387c8bea9270640a3ca3614054af090e660ccc6864205a3908026d364736f6c634300080c0033",
  "immutableReferences": {},
  "source": "// SPDX-License-Identifier: MIT\r\npragma solidity ^0.8.0;\r\n\r\nimport './ERC721Metadata.sol';\r\nimport './ERC721Enumerable.sol';\r\n\r\ncontract ERC721Connector is ERC721Metadata,ERC721Enumerable{\r\n    \r\n    constructor(string memory name, string memory symbol) ERC721Metadata(name, symbol){\r\n        \r\n    }\r\n}",
  "sourcePath": "C:\\Users\\Arhan Ali Khan\\Desktop\\NFT-Marketplace\\src\\contracts\\ERC721Connector.sol",
  "compiler": {
    "name": "solc",
    "version": "0.8.12+commit.f00d7308.Emscripten.clang"
  },
  "schemaVersion": "3.4.4",
  "updatedAt": "2022-02-18T04:32:51.578Z",
  "devdoc": {
    "kind": "dev",
    "methods": {},
    "version": 1
  },
  "userdoc": {
    "kind": "user",
    "methods": {
      "symbol()": {
        "notice": "An abbreviated name for NFTs in this contract"
      }
    },
    "version": 1
  }
}