{
  "contractName": "Juit",
  "abi": [
    {
      "inputs": [],
      "stateMutability": "nonpayable",
      "type": "constructor"
    },
    {
      "anonymous": false,
      "inputs": [
        {
          "indexed": true,
          "internalType": "address",
          "name": "_from",
          "type": "address"
        },
        {
          "indexed": true,
          "internalType": "address",
          "name": "_to",
          "type": "address"
        },
        {
          "indexed": true,
          "internalType": "uint256",
          "name": "_tokenId",
          "type": "uint256"
        }
      ],
      "name": "Transfer",
      "type": "event"
    },
    {
      "inputs": [
        {
          "internalType": "address",
          "name": "_owner",
          "type": "address"
        }
      ],
      "name": "balanceOf",
      "outputs": [
        {
          "internalType": "uint256",
          "name": "",
          "type": "uint256"
        }
      ],
      "stateMutability": "view",
      "type": "function",
      "constant": true
    },
    {
      "inputs": [
        {
          "internalType": "uint256",
          "name": "",
          "type": "uint256"
        }
      ],
      "name": "juit",
      "outputs": [
        {
          "internalType": "string",
          "name": "",
          "type": "string"
        }
      ],
      "stateMutability": "view",
      "type": "function",
      "constant": true
    },
    {
      "inputs": [],
      "name": "name",
      "outputs": [
        {
          "internalType": "string",
          "name": "",
          "type": "string"
        }
      ],
      "stateMutability": "view",
      "type": "function",
      "constant": true
    },
    {
      "inputs": [
        {
          "internalType": "uint256",
          "name": "_tokenId",
          "type": "uint256"
        }
      ],
      "name": "ownerOf",
      "outputs": [
        {
          "internalType": "address",
          "name": "",
          "type": "address"
        }
      ],
      "stateMutability": "view",
      "type": "function",
      "constant": true
    },
    {
      "inputs": [
        {
          "internalType": "bytes4",
          "name": "interfaceID",
          "type": "bytes4"
        }
      ],
      "name": "supportsInterface",
      "outputs": [
        {
          "internalType": "bool",
          "name": "",
          "type": "bool"
        }
      ],
      "stateMutability": "view",
      "type": "function",
      "constant": true
    },
    {
      "inputs": [],
      "name": "symbol",
      "outputs": [
        {
          "internalType": "string",
          "name": "",
          "type": "string"
        }
      ],
      "stateMutability": "view",
      "type": "function",
      "constant": true
    },
    {
      "inputs": [
        {
          "internalType": "uint256",
          "name": "_index",
          "type": "uint256"
        }
      ],
      "name": "tokenByIndex",
      "outputs": [
        {
          "internalType": "uint256",
          "name": "",
          "type": "uint256"
        }
      ],
      "stateMutability": "view",
      "type": "function",
      "constant": true
    },
    {
      "inputs": [
        {
          "internalType": "address",
          "name": "_owner",
          "type": "address"
        },
        {
          "internalType": "uint256",
          "name": "_index",
          "type": "uint256"
        }
      ],
      "name": "tokenOfOwnerByIndex",
      "outputs": [
        {
          "internalType": "uint256",
          "name": "",
          "type": "uint256"
        }
      ],
      "stateMutability": "view",
      "type": "function",
      "constant": true
    },
    {
      "inputs": [],
      "name": "totalSupply",
      "outputs": [
        {
          "internalType": "uint256",
          "name": "",
          "type": "uint256"
        }
      ],
      "stateMutability": "view",
      "type": "function",
      "constant": true
    },
    {
      "inputs": [
        {
          "internalType": "address",
          "name": "_from",
          "type": "address"
        },
        {
          "internalType": "address",
          "name": "_to",
          "type": "address"
        },
        {
          "internalType": "uint256",
          "name": "_tokenId",
          "type": "uint256"
        }
      ],
      "name": "transferFrom",
      "outputs": [],
      "stateMutability": "nonpayable",
      "type": "function"
    },
    {
      "inputs": [
        {
          "internalType": "string",
          "name": "_juit",
          "type": "string"
        }
      ],
      "name": "mint",
      "outputs": [],
      "stateMutability": "nonpayable",
      "type": "function"
    }
  ],
  "bytecode": "0x60806040523480156200001157600080fd5b506040518060400160405280600481526020017f4a756974000000000000000000000000000000000000000000000000000000008152506040518060400160405280600681526020017f48656176656e00000000000000000000000000000000000000000000000000008152508181620000b17f73813bba42f44928e20db2a5b92cac99671b641f2b84888df9e2d62fb14450826200022a60201b60201c565b8160019080519060200190620000c992919062000296565b508060029080519060200190620000e292919062000296565b50620001367f13b182f4c0e5b2efbac0efe6cf6d756c8b89f4b79c5707a043ed9ea740574ee97f7feaf19471f34a12a7eaf32d5f3090aa2260ea8624dc8a138e74e0bf0f623076186200022a60201b60201c565b5050620001ad7f22c82707ba960a14c7592ffb6b8cfaa073fed0048a84cc7fa41f6b5bd8e7f2e47f3a6eb71757dfc6e784c1459d26270140c2c147d95ca985c80026fc5301c3eca17f8a7e378434598edc36d108689a030cbc9d7d465de4f74c71bae1028eed6a881b18186200022a60201b60201c565b620002227f8230223f691b981717299fae9549350a0d894555723531f02108b1f522c1a7977f6da5e1284143cdd2d15038a59bde3be031250f00291d64494c12d967b3a4e0c37fc53637662700e6c65104059db8bba34439e0c32483ab7c34e3ccae52c739549518186200022a60201b60201c565b5050620003ab565b6001600080837bffffffffffffffffffffffffffffffffffffffffffffffffffffffff19167bffffffffffffffffffffffffffffffffffffffffffffffffffffffff1916815260200190815260200160002060006101000a81548160ff02191690831515021790555050565b828054620002a49062000375565b90600052602060002090601f016020900481019282620002c8576000855562000314565b82601f10620002e357805160ff191683800117855562000314565b8280016001018555821562000314579182015b8281111562000313578251825591602001919060010190620002f6565b5b50905062000323919062000327565b5090565b5b808211156200034257600081600090555060010162000328565b5090565b7f4e487b7100000000000000000000000000000000000000000000000000000000600052602260045260246000fd5b600060028204905060018216806200038e57607f821691505b60208210811415620003a557620003a462000346565b5b50919050565b61186680620003bb6000396000f3fe608060405234801561001057600080fd5b50600436106100a95760003560e01c80634f6ccce7116100715780634f6ccce7146101665780636352211e1461019657806370a08231146101c657806395d89b41146101f6578063d85d3d2714610214578063e197e5d714610230576100a9565b806301ffc9a7146100ae57806306fdde03146100de57806318160ddd146100fc57806323b872dd1461011a5780632f745c5914610136575b600080fd5b6100c860048036038101906100c39190610ec3565b610260565b6040516100d59190610f0b565b60405180910390f35b6100e66102c7565b6040516100f39190610fbf565b60405180910390f35b610104610359565b6040516101119190610ffa565b60405180910390f35b610134600480360381019061012f919061109f565b610366565b005b610150600480360381019061014b91906110f2565b610376565b60405161015d9190610ffa565b60405180910390f35b610180600480360381019061017b9190611132565b6103f0565b60405161018d9190610ffa565b60405180910390f35b6101b060048036038101906101ab9190611132565b610461565b6040516101bd919061116e565b60405180910390f35b6101e060048036038101906101db9190611189565b610513565b6040516101ed9190610ffa565b60405180910390f35b6101fe6105cb565b60405161020b9190610fbf565b60405180910390f35b61022e600480360381019061022991906112eb565b61065d565b005b61024a60048036038101906102459190611132565b610760565b6040516102579190610fbf565b60405180910390f35b6000806000837bffffffffffffffffffffffffffffffffffffffffffffffffffffffff19167bffffffffffffffffffffffffffffffffffffffffffffffffffffffff1916815260200190815260200160002060009054906101000a900460ff169050919050565b6060600180546102d690611363565b80601f016020809104026020016040519081016040528092919081815260200182805461030290611363565b801561034f5780601f106103245761010080835404028352916020019161034f565b820191906000526020600020905b81548152906001019060200180831161033257829003601f168201915b5050505050905090565b6000600580549050905090565b61037183838361080c565b505050565b600061038183610513565b821061038c57600080fd5b600760008473ffffffffffffffffffffffffffffffffffffffff1673ffffffffffffffffffffffffffffffffffffffff16815260200190815260200160002082815481106103dd576103dc611395565b5b9060005260206000200154905092915050565b60006103fa610359565b821061043b576040517f08c379a000000000000000000000000000000000000000000000000000000000815260040161043290611410565b60405180910390fd5b6005828154811061044f5761044e611395565b5b90600052602060002001549050919050565b6000806003600084815260200190815260200160002060009054906101000a900473ffffffffffffffffffffffffffffffffffffffff169050600073ffffffffffffffffffffffffffffffffffffffff168173ffffffffffffffffffffffffffffffffffffffff16141561050a576040517f08c379a00000000000000000000000000000000000000000000000000000000081526004016105019061147c565b60405180910390fd5b80915050919050565b60008073ffffffffffffffffffffffffffffffffffffffff168273ffffffffffffffffffffffffffffffffffffffff161415610584576040517f08c379a000000000000000000000000000000000000000000000000000000000815260040161057b906114e8565b60405180910390fd5b600460008373ffffffffffffffffffffffffffffffffffffffff1673ffffffffffffffffffffffffffffffffffffffff168152602001908152602001600020549050919050565b6060600280546105da90611363565b80601f016020809104026020016040519081016040528092919081815260200182805461060690611363565b80156106535780601f1061062857610100808354040283529160200191610653565b820191906000526020600020905b81548152906001019060200180831161063657829003601f168201915b5050505050905090565b600a8160405161066d9190611544565b908152602001604051809103902060009054906101000a900460ff16156106c9576040517f08c379a00000000000000000000000000000000000000000000000000000000081526004016106c0906115a7565b60405180910390fd5b600981908060018154018082558091505060019003906000526020600020016000909190919091509080519060200190610704929190610db4565b506000600160098054905061071991906115f6565b90506107253382610a52565b6001600a836040516107379190611544565b908152602001604051809103902060006101000a81548160ff0219169083151502179055505050565b6009818154811061077057600080fd5b90600052602060002001600091509050805461078b90611363565b80601f01602080910402602001604051908101604052809291908181526020018280546107b790611363565b80156108045780601f106107d957610100808354040283529160200191610804565b820191906000526020600020905b8154815290600101906020018083116107e757829003601f168201915b505050505081565b600073ffffffffffffffffffffffffffffffffffffffff168273ffffffffffffffffffffffffffffffffffffffff16141561087c576040517f08c379a000000000000000000000000000000000000000000000000000000000815260040161087390611676565b60405180910390fd5b8273ffffffffffffffffffffffffffffffffffffffff1661089c82610461565b73ffffffffffffffffffffffffffffffffffffffff16146108f2576040517f08c379a00000000000000000000000000000000000000000000000000000000081526004016108e9906116e2565b60405180910390fd5b6001600460008573ffffffffffffffffffffffffffffffffffffffff1673ffffffffffffffffffffffffffffffffffffffff168152602001908152602001600020600082825461094291906115f6565b925050819055506001600460008473ffffffffffffffffffffffffffffffffffffffff1673ffffffffffffffffffffffffffffffffffffffff16815260200190815260200160002060008282546109999190611702565b92505081905550816003600083815260200190815260200160002060006101000a81548173ffffffffffffffffffffffffffffffffffffffff021916908373ffffffffffffffffffffffffffffffffffffffff160217905550808273ffffffffffffffffffffffffffffffffffffffff168473ffffffffffffffffffffffffffffffffffffffff167fddf252ad1be2c89b69c2b068fc378daa952ba7f163c4a11628f55a4df523b3ef60405160405180910390a4505050565b610a5c8282610a73565b610a6581610c35565b610a6f8282610c7e565b5050565b600073ffffffffffffffffffffffffffffffffffffffff168273ffffffffffffffffffffffffffffffffffffffff161415610ae3576040517f08c379a0000000000000000000000000000000000000000000000000000000008152600401610ada906117a4565b60405180910390fd5b610aec81610d42565b15610b2c576040517f08c379a0000000000000000000000000000000000000000000000000000000008152600401610b2390611810565b60405180910390fd5b816003600083815260200190815260200160002060006101000a81548173ffffffffffffffffffffffffffffffffffffffff021916908373ffffffffffffffffffffffffffffffffffffffff1602179055506001600460008473ffffffffffffffffffffffffffffffffffffffff1673ffffffffffffffffffffffffffffffffffffffff1681526020019081526020016000206000828254610bce9190611702565b92505081905550808273ffffffffffffffffffffffffffffffffffffffff16600073ffffffffffffffffffffffffffffffffffffffff167fddf252ad1be2c89b69c2b068fc378daa952ba7f163c4a11628f55a4df523b3ef60405160405180910390a45050565b6005805490506006600083815260200190815260200160002081905550600581908060018154018082558091505060019003906000526020600020016000909190919091505550565b600760008373ffffffffffffffffffffffffffffffffffffffff1673ffffffffffffffffffffffffffffffffffffffff168152602001908152602001600020805490506008600083815260200190815260200160002081905550600760008373ffffffffffffffffffffffffffffffffffffffff1673ffffffffffffffffffffffffffffffffffffffff1681526020019081526020016000208190806001815401808255809150506001900390600052602060002001600090919091909150555050565b6000806003600084815260200190815260200160002060009054906101000a900473ffffffffffffffffffffffffffffffffffffffff169050600073ffffffffffffffffffffffffffffffffffffffff168173ffffffffffffffffffffffffffffffffffffffff161415915050919050565b828054610dc090611363565b90600052602060002090601f016020900481019282610de25760008555610e29565b82601f10610dfb57805160ff1916838001178555610e29565b82800160010185558215610e29579182015b82811115610e28578251825591602001919060010190610e0d565b5b509050610e369190610e3a565b5090565b5b80821115610e53576000816000905550600101610e3b565b5090565b6000604051905090565b600080fd5b600080fd5b60007fffffffff0000000000000000000000000000000000000000000000000000000082169050919050565b610ea081610e6b565b8114610eab57600080fd5b50565b600081359050610ebd81610e97565b92915050565b600060208284031215610ed957610ed8610e61565b5b6000610ee784828501610eae565b91505092915050565b60008115159050919050565b610f0581610ef0565b82525050565b6000602082019050610f206000830184610efc565b92915050565b600081519050919050565b600082825260208201905092915050565b60005b83811015610f60578082015181840152602081019050610f45565b83811115610f6f576000848401525b50505050565b6000601f19601f8301169050919050565b6000610f9182610f26565b610f9b8185610f31565b9350610fab818560208601610f42565b610fb481610f75565b840191505092915050565b60006020820190508181036000830152610fd98184610f86565b905092915050565b6000819050919050565b610ff481610fe1565b82525050565b600060208201905061100f6000830184610feb565b92915050565b600073ffffffffffffffffffffffffffffffffffffffff82169050919050565b600061104082611015565b9050919050565b61105081611035565b811461105b57600080fd5b50565b60008135905061106d81611047565b92915050565b61107c81610fe1565b811461108757600080fd5b50565b60008135905061109981611073565b92915050565b6000806000606084860312156110b8576110b7610e61565b5b60006110c68682870161105e565b93505060206110d78682870161105e565b92505060406110e88682870161108a565b9150509250925092565b6000806040838503121561110957611108610e61565b5b60006111178582860161105e565b92505060206111288582860161108a565b9150509250929050565b60006020828403121561114857611147610e61565b5b60006111568482850161108a565b91505092915050565b61116881611035565b82525050565b6000602082019050611183600083018461115f565b92915050565b60006020828403121561119f5761119e610e61565b5b60006111ad8482850161105e565b91505092915050565b600080fd5b600080fd5b7f4e487b7100000000000000000000000000000000000000000000000000000000600052604160045260246000fd5b6111f882610f75565b810181811067ffffffffffffffff82111715611217576112166111c0565b5b80604052505050565b600061122a610e57565b905061123682826111ef565b919050565b600067ffffffffffffffff821115611256576112556111c0565b5b61125f82610f75565b9050602081019050919050565b82818337600083830152505050565b600061128e6112898461123b565b611220565b9050828152602081018484840111156112aa576112a96111bb565b5b6112b584828561126c565b509392505050565b600082601f8301126112d2576112d16111b6565b5b81356112e284826020860161127b565b91505092915050565b60006020828403121561130157611300610e61565b5b600082013567ffffffffffffffff81111561131f5761131e610e66565b5b61132b848285016112bd565b91505092915050565b7f4e487b7100000000000000000000000000000000000000000000000000000000600052602260045260246000fd5b6000600282049050600182168061137b57607f821691505b6020821081141561138f5761138e611334565b5b50919050565b7f4e487b7100000000000000000000000000000000000000000000000000000000600052603260045260246000fd5b7f676c6f62616c20696e646578206f7574206f6620626f756e6365000000000000600082015250565b60006113fa601a83610f31565b9150611405826113c4565b602082019050919050565b60006020820190508181036000830152611429816113ed565b9050919050565b7f6f776e6572206e6f7420666f756e640000000000000000000000000000000000600082015250565b6000611466600f83610f31565b915061147182611430565b602082019050919050565b6000602082019050818103600083015261149581611459565b9050919050565b7f6f776e6572206973207a65726f00000000000000000000000000000000000000600082015250565b60006114d2600d83610f31565b91506114dd8261149c565b602082019050919050565b60006020820190508181036000830152611501816114c5565b9050919050565b600081905092915050565b600061151e82610f26565b6115288185611508565b9350611538818560208601610f42565b80840191505092915050565b60006115508284611513565b915081905092915050565b7f4572726f722d206e667420616c72656164792065786973747300000000000000600082015250565b6000611591601983610f31565b915061159c8261155b565b602082019050919050565b600060208201905081810360008301526115c081611584565b9050919050565b7f4e487b7100000000000000000000000000000000000000000000000000000000600052601160045260246000fd5b600061160182610fe1565b915061160c83610fe1565b92508282101561161f5761161e6115c7565b5b828203905092915050565b7f5472616e73666572696e6720746f207a65722061646472657373000000000000600082015250565b6000611660601a83610f31565b915061166b8261162a565b602082019050919050565b6000602082019050818103600083015261168f81611653565b9050919050565b7f796f7520646f6e74206f776e20746865206e6674206469707368697400000000600082015250565b60006116cc601c83610f31565b91506116d782611696565b602082019050919050565b600060208201905081810360008301526116fb816116bf565b9050919050565b600061170d82610fe1565b915061171883610fe1565b9250827fffffffffffffffffffffffffffffffffffffffffffffffffffffffffffffffff0382111561174d5761174c6115c7565b5b828201905092915050565b7f4552433732313a206d696e74696e6720746f207a65726f206164647265737300600082015250565b600061178e601f83610f31565b915061179982611758565b602082019050919050565b600060208201905081810360008301526117bd81611781565b9050919050565b7f4552433732313a20746f6b656e20616c7265616479206d696e74656400000000600082015250565b60006117fa601c83610f31565b9150611805826117c4565b602082019050919050565b60006020820190508181036000830152611829816117ed565b905091905056fea2646970667358221220d3b02291471f514d5b07905fd0469ca88cbccb3ae8de95efaef0fa67b6099c2364736f6c634300080c0033",
  "immutableReferences": {},
  "source": "// SPDX-License-Identifier: MIT\r\npragma solidity ^0.8.0;\r\n\r\nimport './ERC721Connector.sol';\r\n\r\ncontract Juit is ERC721Connector{\r\n    //to store nft\r\n    string[] public juit;\r\n\r\n    mapping(string => bool) _nftExists;\r\n\r\n    function mint(string memory _juit) public{\r\n        require(!_nftExists[_juit], 'Error- nft already exists');\r\n\r\n        juit.push(_juit);\r\n        uint _id = juit.length - 1;\r\n        _mint(msg.sender, _id);\r\n\r\n        _nftExists[_juit] = true;\r\n    }\r\n\r\n\r\n    constructor() ERC721Connector('Juit','Heaven'){\r\n        \r\n    }\r\n}",
  "sourcePath": "C:\\Users\\Arhan Ali Khan\\Desktop\\NFT-Marketplace\\src\\contracts\\Juit.sol",
  "compiler": {
    "name": "solc",
    "version": "0.8.12+commit.f00d7308.Emscripten.clang"
  },
  "schemaVersion": "3.4.4",
  "updatedAt": "2022-02-18T04:33:08.589Z",
  "networkType": "ethereum",
  "devdoc": {
    "kind": "dev",
    "methods": {},
    "version": 1
  },
  "userdoc": {
    "kind": "user",
    "methods": {
      "symbol()": {
        "notice": "An abbreviated name for NFTs in this contract"
      }
    },
    "version": 1
  }
}